:040000008A11FD2F35
:100DD600831203139F149F18F12EF22EEE2E1E0877
:100DE600F100831603131E08F00008008312031790
:100DF6009E019F01831603130515831203171E1503
:100E0600831203131F08C33908389F008316031380
:100E16001F088F3950389F00831203139F171F1422
:100E26001F1308008A11F9268A1183160313071067
:100E360087100711871207128711071387130612E7
:100E4600861286130617831203138613061F2C2F8A
:100E56002D2F292F8A11EB268A117108F6007008AA
:100E6600F5008312031386177608F1007508F00063
:100E76008A1144278A11831203138613292F8A1194
:100E8600002801307005F20083120313070872066A
:100E9600FE39720687007108F3007008F20003102D
:100EA600F30CF20C72080139F400F40D070874060D
:100EB600FD39740687007108F3007008F20003100C
:100EC600F30CF20C0310F30CF20C72080139F40067
:100ED600F40DF40D07087406FB39740687007108D3
:100EE600F3007008F2000310F30CF20C0310F30C7D
:100EF600F20C0310F30CF20C72080139F400F40E34
:100F0600F40D07087406DF39740687007108F300CC
:100F16007008F20004300310F30CF20CFF3E031DC0
:100F26008E2F72080139F400F40E07087406EF39A3
:100F3600740687007108F3007008F200053003108C
:100F4600F30CF20CFF3E031DA22F72080139F400C8
:100F5600F40DF40DF40D07087406F73974068700CE
:100F66007108F3007008F20006300310F30CF20C5F
:100F7600FF3E031DB82F72080139F400F40EF40D7C
:100F8600F40D07087406BF39740687007108F3006C
:100F96007008F20007300310F30CF20CFF3E031D3D
:100FA600CE2F72080139F400F40CF40C070874060D
:100FB6007F397406870071080139F200F20E0608BF
:100FC6007206EF39720686007108F3007008F200A7
:100FD60009300310F30CF20CFF3E031DEC2F7208D0
:100FE6000139F400F40EF40D06087406DF397406B0
:0A0FF6008600080083018A11152F00
:02400E00F2308E
:00000001FF
